:100000000C9423080C9454080C9454080C94540831
:100010000C9454080C9454080C9454080C945408F0
:100020000C9454080C9454080C9454080C945408E0
:100030000C9454080C9454080C9454080C945408D0
:100040000C9454080C9454080C9454080C945408C0
:100050000C9454080C9454080C9454080C94EE1806
:100060000C9454080C9462190C9438190C9454088C
:100070000C9454080C9454080C9454080C94540890
:100080000C9454080C9454080C9454080C94540880
:100090000C9454080C9454080C9454080C9498191B
:1000A0000C9454080C9454080C9454080C94540860
:1000B0000C9454080C9454080C9454080C94540850
:1000C0000C9454080C9454080C9454080C94540840
:1000D0000C9454080C9454080C9454080C94540830
:1000E0000C945408036EDB363D9A9999993DABAA5E
:1000F000AA2A3E000000803F084AD73B3BCE016E53
:1001000084BCBFFDC12F3D6C74319ABD56833DDA6E
:100110003D00C77F11BED9E4BB4C3E916BAAAABE7D
:10012000000000803F072C7AA5BA6CC590DA3B939B
:1001300065FC8BBC53F810FD3C5692834DBD879DEA
:100140003AB63DCBC9BF5BBE73DA0FC93F000C9412
:10015000B90C0C94D2080C94A5080C94BC1A0C94FD
:100160009A0D0C94CA080C94450A0C94CE080C9471
:10017000DC080C949D080C94AC080C94C4080C94F6
:10018000DD090C94BC080C9445090C9446090C94A8
:1001900097090C9447090C94C0080C948B080C9494
:1001A000A5090C94B6080C94C90C0C94A1080C94E5
:1001B000B2080C9483090C9474090C94BA0C0C9436
:1001C00086080C94DC0C0C94960A0C94A9080C94E8
:1001D000D8080C94090D00407A10F35A00A0724E12
:1001E00018090010A5D4E80000E87648170000E4DC
:1001F0000B54020000CA9A3B000000E1F505000024
:1002000080969800000040420F000000A086010088
:100210000000102700000000E80300000000640058
:10022000000000000A0000000000010000000000C3
:100230002C76D888DC674F0823DFC1DFAE59E1B1E7
:10024000B796E5E3E453C63AE651997696E8E6C2F6
:100250008426EB898C9B62ED407C6FFCEFBC9C9FFD
:1002600040F2BAA56FA5F490055A2AF75C936B6C1F
:10027000F9676DC11BFCE0E40D47FEF520E6B50013
:10028000D0ED902E0300943577050080841E080081
:1002900000204E0A000000C80C333333330F986E31
:1002A00012831141EF8D2114893BE65516CFFEE6EE
:1002B000DB18D1844B381BF77C1D901DA4BBE424B4
:1002C000203284725E228100C9F124ECA1E53D2731
:1002D00000F8F62A3F68F57A0006FFFE00030000EA
:1002E00000650054FFEF0000FA80000B128200014D
:1002F000030C30C30A74562D0D62DBC716F4BA0224
:100300003883F8833000F883258EF8833000F88333
:10031000FFFFFFFF0CBDD811240004001A8279A151
:100320000036003C000000000010000038836FA27F
:10033000003E03304000000002CAE3093E80000096
:1003400020000000000000004000000060000000ED
:100350001FA4E8E4FFF5DCB9005B79CF1F3F787696
:1003600000867C5A00862347FAB986310074878A52
:100370000000000000004305FFFFE9A80000218203
:10038000FAB84D46FFFADF3DFFFFB2B300000000B0
:100390003FFFBA98005DAC08000A6378000146216F
:1003A000FFFF0000000042B5000600640064000684
:1003B0001406029F0F479132D90E9FC91DCF4C34AE
:1003C0003BB67AE80064000600C800000000FFFEAB
:1003D000100000000000000000000000000000000D
:1003E00000070000FFF10000FA460000A2B800007C
:1003F0001000000004D6000004CC000004CC000073
:1004000000000000000000000000000000000000EC
:100410000006000200050007000000000064000064
:10042000000000000000000C000500640020000037
:100430000000000000000000000040000000030079
:1004400000000032F8980000FF650000830F0000F4
:1004500000060000FFF10000FA460000A2B800000C
:10046000000000000000000000000000000000008C
:10047000000000320000000000000000000010003A
:10048000000000010000000D0000B26A0002000040
:100490000001FB83007C0000FB15FC001FB4FF8300
:1004A0000000000100650007006403E80064002804
:1004B0000000FFFD0000000016A00000000000008A
:1004C00000001000002F0000000001F400001000E8
:1004D00000280000FFFF4581FFFFFA7200000000C6
:1004E00000000000004400010005BAC6004778A2E1
:1004F00000000000000000000000060000000014E2
:10050000000023BB002EA25B00000568000BCF4952
:100510000004FFFD000200000000000200000000D7
:10052000001B0000000000000000000000000000B0
:1005300000640007000800060006FFFE000000003F
:1005400000000000000000000000000000000000AB
:10055000000000000000000000000000000000009B
:10056000000000000000000000000000000000008B
:10057000002EA25B00000568000BCF4900000000C0
:1005800000F8F62A3F68F57A0004FFFD000200003B
:10059000001B00000000000000000000000E000E24
:1005A000FFFFFFCF0004000000000032FFFFFF9CB0
:1005B000000043050000000000000001000000648E
:1005C000FFE5000000000000000000000000000047
:1005D0000000000100000000000100000000000019
:1005E000000180000001800000018000002426D36B
:1005F0000001000100000000000600100096003C11
:100600000000000000000000000000001F9E655D6B
:100610000C0A4E68CDCF770950166759C619CE829D
:100620000000000000000000000000000047711CF6
:10063000000000000000000017D784000300000045
:100640000011DC4703000000C7938F9D1E1B1C197F
:10065000FFFFFFFF000000000EDFA4381F9E655D56
:10066000000000000047711C0203188500004000D4
:100670000000000000000003000000000000000077
:100680003FFFFFFDFFFFF4C9FFFFBCF000010C0FAF
:10069000000000000000000000000000000000005A
:1006A000000000000000000000000000000000004A
:1006B000F5B7BAB3677DDF7E72902E554CF6E688AB
:1006C000000000000000000000000000000000002A
:1006D000D8DCB4B8B0D8B9ABF3F8FAB3B7BB8E9ED8
:1006E000AEF132F51BF1B4B8B08097F1A9DFDFDFCE
:1006F000AADFDFDFF2AA4CCD6CA90CC92C97F1A9B7
:1007000089264666B28999A92D557DB0B08AA896EA
:10071000365676F1BAA3B4B280C0B8A89711B283A6
:1007200098BAA3F0240844106418B2B9B49883F1BD
:10073000A329557DBAB5B1A38393F0002850F5B233
:10074000B6AA839328547CF1B9A3829361BAA2DA42
:10075000DEDFDB819AB9AEF5606870F1DABAA2DF4C
:10076000D9BAA2FAB9A38292DB31BAA2D9BAA2F855
:10077000DF85A4D0C1BBAD83C2C5C7B8A2DFDFDFB0
:10078000BAA0DFDFDFD8D8F1B8AAB38DB4980D35A1
:100790005DB2B6BAAF8C96198F9FA70E161EB49A8B
:1007A000B8AA872C547CBAA4B08AB691325676B2D5
:1007B0008494A4C808CDD8B8B4B0F19982A82D55B6
:1007C0007D98A80E161EA22C547C92A4F02C507872
:1007D000F184A898C4CDFCD80DDBA8FC2DF3D9BAC0
:1007E000A6F8DABAA6DED8BAB2B68696A6D0F3C80C
:1007F00041DAA6C8F8D8B0B4B882A892F52C5488CB
:1008000098F135D9F418D8F1A2D0F8F9A884D9C74D
:10081000DFF8F883C5DADF69DF83C1D8F40114F1AA
:10082000A8824EA884F311D182F5D992289788F135
:1008300009F41C1CD884A8F3C0F9D1D99782F129F6
:10084000F40DD8F3F9F9D1D982F4C203D8DEDF1A56
:10085000D8F1A2FAF9A88498D9C7DFF8F8F883C7C5
:10086000DADF69DFF883C3D8F40114F198A8822E87
:10087000A884F311D182F5D992509788F109F41C1C
:10088000D884A8F3C0F8F9D1D99782F149F40DD8EA
:10089000F3F9F9D1D982F4C403D8DEDFD8F1AD88F9
:1008A00098CCA809F9D98292A8F57CF1883ACF941E
:1008B0004A6E98DB6931DAADF2DEF9D88795A8F295
:1008C00021D1DAA5F9F417D9F1AE8ED0C0C3AE822A
:1008D000C684C3A88595C8A588F2C0F1F4010EF1BD
:1008E0008E9EA8C63E56F554F18872F40115F19813
:1008F00045856EF58E9E0488F142985A8E9E068834
:1009000069F4011CF1981E1108D0F504F11E97023C
:1009100002983625DBF9D985A5F3C1DA85A5F3DF81
:10092000D88595A8F309DAA5FAD88292A8F578F1C6
:10093000881A849F26889821DAF41DF3D8879F3976
:10094000D1AFD9DFDFFBF9F40CF3D8FAD0F8DAF93C
:10095000F9D0DFD9F9D8F40BD8F3879F39D1AFD9C3
:10096000DFDFF41DF3D8FAFCA869F9F9AFD0DADEBD
:10097000FAD9F88F9FA8F1CCF398DB45D9AFDFD037
:10098000F8D8F18F9FA8CAF38809DAAF8FCBF8D8CF
:10099000F2AD978D0CD9A5DFF9BAA6F3FAF412F2ED
:1009A000D8950DD1D9BAA6F3FADAA5F2C1BAA6F351
:1009B000DFD8F1BAB2B68696A6D0CAF349DAA6CB8A
:1009C000F8D8B0B4B8D8AD84F2C0DFF18FCBC3A8EB
:1009D000B2B68696C8C1CBC3F3B0B48898A821DB61
:1009E000718D9D71859521D9ADF2FAD88597A8288A
:1009F000D9F408D8F28D29DAF405D9F285A4C2F227
:100A0000D8A88D9401D1D9F411F2D88721D8F40A4D
:100A1000D8F28498A8C801D1D9F411D8F3A4C8BBDE
:100A2000AFD0F2DEF8F8F8F8F8F8F8F8D8F1B8F640
:100A3000B5B9B08A95A3DE3CA3D9F8D85CA3D9F8A0
:100A4000D87CA3D9F8D8F8F9D1A5D9DFDAFAD8B18A
:100A50008530F7D9DED8F830ADDADED8F2B48C992B
:100A6000A32D557DA083DFDFDFB591A0F629D9FB4B
:100A7000D8A0FC29D9FAD8A0D051D9F8D8FC51D99E
:100A8000F9D879D9FBD8A0D0FC79D9FAD8A1F9F94D
:100A9000F9F9F9A0DADFDFDFD8A1F8F8F8F8F8AC57
:100AA000DEF8ADDE8393AC2C547CF1A8DFDFDFF6FB
:100AB0009D2CDAA0DFD9FADB2DF8D8A850DAA0D027
:100AC000DED9D0F8F8F8DB55F8D8A878DAA0D0DF6E
:100AD000D9D0FAF8F8F8F8DB7DF8D89CA88CF53076
:100AE000DB38D9D0DEDFA0D0DEDFD8A848DB58D98C
:100AF000DFD0DEA0DFD0DED8A868DB70D9DFDFA0D2
:100B0000DFDFD8F1A888902C547C98A8D05C38D12D
:100B1000DAF2AE8CDFF9D8B087A8C1C1B188A8C617
:100B2000F9F9DA36D8A8F9DA36D8A8F9DA36D8A831
:100B3000F9DA36D8A8F9DA36D8F78D9DADF818DA93
:100B4000F2AEDFD8F7ADFA30D9A4DEF9D8F2AEDED6
:100B5000FAF983A7D9C3C5C7F1889BA77AADF7DE99
:100B6000DFA4F8849408A797F300AEF29819A4883C
:100B7000C6A39488F632DFF28393DB09D9F2AADFA9
:100B8000D8D8AEF8F9D1DAF3A4DEA7F1889B7AD8E9
:100B9000F38494AE19F9DAAAF1DFD8A881C0C3C5ED
:100BA000C7A39283F628ADDED9F8D8A350ADD9F803
:100BB000D8A378ADD9F8D8F8F9D1A1DADEC3C5C782
:100BC000D8A18194F818F2B089ACC3C5C7F1D8B8E0
:100BD000B4B09786A8319B069907AB9728889BF0FD
:100BE0000C201440B0B4B8F0A88A9A285078B79B6B
:100BF000A8295179247059446938644831F1BBAB54
:100C000088002C547CF0B38BB8A804285078F1B03D
:100C100088B49726A85998BBABB38B02264666B01A
:100C2000B8F08A9CA82951798B2951798A24705966
:100C30008B2058718A4469388B3940688A644831FE
:100C40008B30496088F1AC002C547CF08CA80428CF
:100C50005078F1889726A85998AC8C02264666F001
:100C6000899CA8295179247059446938644831A96C
:100C70008809205970AB11384069A8193148608C37
:100C8000A83C415C207C00F187981986A86E767E8E
:100C9000A999882D557DD8B1B5B9A3DFDFDFAED0D6
:100CA000DFAAD0DEF2ABF8F9D9B087C4AAF1DFDF52
:100CB000BBAFDFDFB9D8B1F1A3978E60DFB084F2AC
:100CC000C8F8F9D9DED89385F14AB183A308B58372
:100CD0009A0810B79F10D8F1B0BAAEB08AC2B2B6B7
:100CE0008E9EF1FBD9F41DD8F9D90CF1D8F8F8ADE6
:100CF00061D9AEFBD8F40CF1D8F8F8AD19D9AEFB38
:100D0000DFD8F416F1D8F8AD8D61D9F4F4ACF59CC8
:100D10009C8DDF2BBAB6AEFAF8F40BD8F1AED0F852
:100D2000AD51DAAEFAF8F1D8B9B1B6A3839C08B9DF
:100D3000B1839AB5AAC0FD3083B79F10B58B93F2EB
:100D40000202D1ABDADED8F1B080BAABC0C3B28454
:100D5000C1C3D8B1B9F38BA391B609B4D9ABDEB096
:100D6000879CB9A3DDF1B38B8B8B8B8BB08720284D
:100D70003038B28BB69BF2A3C0C8C2C4CCC6A3A302
:100D8000A3F1B087B59AD8F39BA3A3DCBAACDFB9C3
:100D9000A3FEF2ABC4AAF1DFDFBBAFDFDFA3A3A3E7
:100DA000D8D8D8BBB3B7F1AAF9DAFFD9809AAA2864
:100DB000B48098A720B79787A86688F07951F190FA
:100DC0002C870CA781976293F0717160859401293B
:100DD000517990A5F1284C6C870C95188578A383E0
:100DE00090284C6C886CD8F3A28200F210A892195B
:100DF00080A2F2D926D8F188A84DD948D896A8392A
:100E000080D93CD89580A839A68698D92CDA87A7AE
:100E10002CD8A8899519A980D938D8A88939A9804A
:100E2000DA3CD8A82EA83990D90CD8A8953198D9F1
:100E30000CD8A809D9FFD801DAFFD89539A9DA2644
:100E4000FFD890A80D8999A810809821DA2ED8890A
:100E500099A83180DA2ED8A886963180DA2ED8A8C3
:100E6000873180DA2ED8A88292F34180F1D92ED82A
:100E7000A882F31980F1D92ED882ACF3C0A28022C7
:100E8000F1A62EA72EA92298A829DAACDEFFD8A2B7
:100E9000F22AF1A92E8292A8F23180A696F1D90009
:100EA000AC8C9C0C30ACDED0DEFFD88C9CACD0106F
:100EB000ACDE8092A2F24C82A8F1CAF235F196889B
:100EC000A6D900D8F1FF0A002000002C2020002025
:100ED00000002C2020002000002C202000200000FA
:100EE0002C2020002000002C2020002000000A2FB1
:100EF0002F20202020202020202020205820416347
:100F000063656C20205920416363656C20205A2062
:100F1000416363656C20202058204779726F202040
:100F20002059204779726F2020205A204779726F0C
:100F30000A2F2F4F46465345545320202000496E18
:100F40006974616C6973696572656E20646572208D
:100F5000444D502E2E2E0000002200250028002B8C
:100F6000002E003100340002010000050108010BD1
:100F70000105050505070508080808020202020A1E
:100F80000A0808040404040101010101010101032C
:100F900003030303030303040707070C0C0C0C0CE7
:100FA0000C0C0C0202020206060606060606060BDA
:100FB0000B0B0B0B0B0B0B01021020200808102051
:100FC00040102040800201020108040201010204D5
:100FD0000810204080804020100804020180040294
:100FE00001804020100804020108040201010204EB
:100FF0000810204080010204081020408000000AF0
:101000000B02090C0D0E080703040100000000008C
:1010100000000000000000000000000000000000D0
:10102000000000000000000000121110000000008D
:1010300000000000000000000000000000000000B0
:1010400000000000BC1A11241FBECFEFD1E2DEBFAA
:10105000CDBF00E00CBF14E0A0E0B2E0E6E4FDE4A8
:1010600000E00BBF02C007900D92A236B107D9F77E
:1010700026E0A2E6B4E001C01D92AC3CB207E1F765
:1010800018E0C3E2D8E000E006C021970109802FF4
:10109000FE010E94D521C232D10780E00807A9F7DE
:1010A0000E943F1B0C94A1260C940000282F30E0D6
:1010B000F901E350F04F9491F901E954F04F449154
:1010C0002F58304FF9012491222309F435C0992378
:1010D00011F191509231F8F4E92FF0E08827EC58A3
:1010E000F74F8F4F0C94D521A508A90886089D08B5
:1010F000A1088B08AC08B208B608BC08C008C40830
:10110000CA08CE088B08D208D808DC088091800075
:101110008F7780938000E22FF0E0EE0FFF1FE95AF7
:10112000F04FA591B4918FB7F894EC91611148C03C
:1011300040954E234C938FBF0895809180008F7D02
:10114000E8CF80918000877FE4CF84B58F7784BD1E
:10115000E2CF84B58F7DFBCF8091B0008F778093F5
:10116000B000D9CF8091B0008F7DF9CF80919000F1
:101170008F7780939000CFCF809190008F7DF9CFB3
:1011800080919000877FF5CF8091A0008F7780932A
:10119000A000C1CF8091A0008F7DF9CF8091A000E9
:1011A000877FF5CF809120018F7780932001B3CF87
:1011B000809120018F7DF9CF80912001877FF5CF2D
:1011C0004E2BB8CF3FB7F89480914D0590914E05C6
:1011D000A0914F05B091500526B5A89B05C02F3FA3
:1011E00019F00196A11DB11D3FBFBA2FA92F982F4D
:1011F0008827BC01CD01620F711D811D911D42E048
:10120000660F771F881F991F4A95D1F708958F920F
:101210009F92AF92BF92CF92DF92EF92FF924B01DB
:101220005C010E94E2086B017C010E94E2086C19DB
:101230007D098E099F09683E734081059105A8F3D9
:1012400021E0821A9108A108B10888EEC80E83E057
:10125000D81EE11CF11C81149104A104B10429F7EA
:10126000FF90EF90DF90CF90BF90AF909F908F90C6
:1012700008952FB7F8946091490570914A058091BF
:101280004B0590914C052FBF089508950895AF9296
:10129000BF92CF92DF92EF92FF920F931F93CF9363
:1012A000DF936C017B018B01040F151FEB015E01C5
:1012B000AE18BF08C017D10759F06991D601ED915A
:1012C000FC910190F081E02DC6011995892B79F7E9
:1012D000C501DF91CF911F910F91FF90EF90DF90AB
:1012E000CF90BF90AF900895FC01538D448D252F72
:1012F00030E0842F90E0821B930B541710F0CF96B0
:10130000089501970895FC01918D828D981761F0E1
:10131000A28DAE0FBF2FB11D5D968C91928D9F5FF8
:101320009F73928F90E008958FEF9FEF0895FC01D7
:10133000918D828D981731F0828DE80FF11D858D8A
:1013400090E008958FEF9FEF0895FC01918D228D1D
:10135000892F90E0805C9F4F821B91098F739927A2
:10136000089581EC95E00E94A50921E0892B09F4FC
:1013700020E0822F0895FC01A48DA80FB92FB11D84
:10138000A35ABF4F2C91848D90E001968F739927BB
:10139000848FA689B7892C93A089B1898C91837099
:1013A00080648C93938D848D981306C00288F38992
:1013B000E02D80818F7D80830895EF92FF920F93BF
:1013C0001F93CF93DF93EC0181E0888F9B8D8C8DF1
:1013D00098131AC0E889F989808185FF15C09FB7E5
:1013E000F894EE89FF896083E889F98980818370A8
:1013F000806480839FBF81E090E0DF91CF911F9157
:101400000F91FF90EF900895F62E0B8D10E00F5F77
:101410001F4F0F731127E02E8C8D8E110CC00FB64D
:1014200007FCFACFE889F989808185FFF5CFCE01E5
:101430000E94BB09F1CFEB8DEC0FFD2FF11DE35A9C
:10144000FF4FF0829FB7F8940B8FEA89FB89808168
:101450008062CFCF0F931F93CF93DF938C01D0E0A7
:10146000C0E0F801EC0FFD1F6491662341F081ECB0
:1014700095E00E94DD09892B11F02196F2CFCE0173
:10148000DF91CF911F910F910895CF93DF93EC01DE
:10149000888D8823B9F0AA89BB89E889F9898C915C
:1014A00085FD03C0808186FD0DC00FB607FCF7CF18
:1014B0008C9185FFF2CF808185FFEDCFCE010E9418
:1014C000BB09E9CFDF91CF91089580E090E0892BAF
:1014D00029F00E94B10981110E94000080E090E093
:1014E000892B49F080E090E0892B29F00E940000D0
:1014F00081110E94000080E090E0892B49F080E09B
:1015000090E0892B29F00E94000081110E940000C8
:1015100080E090E0892B49F080E090E0892B29F071
:101520000E94000081110C94000008958091AA048B
:101530009091AB04891B990B089520918304260F89
:101540003327331F21323105ECF420919705FC013C
:1015500090E080E0243069F082E00895A091830457
:101560002191AC014D595B4FA40FB52FB11D2C93A8
:101570000196861798F380918304680F6093830423
:1015800080E0089581E008951092970581E08093AE
:1015900096051092710561E084E10E94560861E0B1
:1015A00085E10E945608E9EBF0E080818E7F808320
:1015B00080818D7F808388E48093B80085E4809368
:1015C000BC000895CF93DF9391E090936204882349
:1015D000B9F0C091B800D091BA008091BC008A7B6C
:1015E0008093BC0060E084E10E94560860E085E1E1
:1015F0000E9456080E94C40AD093BA00C093B80053
:10160000DF91CF910895CF92DF92EF92FF920F93E7
:101610001F93CF93DF93D091C00581E0D13208F0C2
:101620009CC0C091BF050E94E2086B017C018091C3
:10163000970581116CC082E08093970581E08093CB
:1016400096058FEF8093950510929405D09393059E
:10165000AFE9B5E0E3E7F5E080E0D8138DC0109284
:10166000720580917205CC0FC82BC09372058091D2
:101670007105813009F084C0109271050E94E20862
:101680006B017C01809172058093BB00809199056C
:1016900090919A05A0919B05B0919C05892B8A2B6E
:1016A0008B2BA1F00E94E2080091990510919A05F8
:1016B00020919B0530919C056C197D098E099F092D
:1016C000061717072807390708F442C08091BC00A5
:1016D00083FDD8CF85EC8093BC000E94E2086B01AB
:1016E0007C0180919705823009F44CC0809195056A
:1016F0008F3F09F469C080919505803209F466C076
:1017000080919505803309F463C084E026C0809100
:10171000990590919A05A0919B05B0919C05892B04
:101720008A2B8B2B09F483CF0E94E2080091990544
:1017300010919A0520919B0530919C056C197D09AB
:101740008E099F09061717072807390708F06FCF7A
:10175000809198050E94E20A85E010929E05109201
:10176000C00510929D05DF91CF911F910F91FF90C1
:10177000EF90DF90CF9008959D9191938F5F6DCF03
:1017800085EEA9CF8091990590919A05A0919B052E
:10179000B0919C05892B8A2B8B2B09F4A2CF0E9438
:1017A000E2080091990510919A0520919B053091CE
:1017B0009C056C197D098E099F09061717072807D4
:1017C000390708F08ECFC4CF80E0C7CF82E0C5CF05
:1017D00083E0C3CFCF92DF92EF92FF920F931F93DC
:1017E000CF93DF93D82FC62F613208F098C00E94A4
:1017F000E2086B017C018091970581116BC081E04B
:1018000080939705809396059FEF9093950510928E
:1018100094059C0F909393058093720580917205B7
:10182000DD0FD82BD093720580917105813009F0BE
:1018300078C0109271050E94E2086B017C018091D2
:1018400072058093BB008091990590919A05A091B3
:101850009B05B0919C05892B8A2B8B2BA1F00E94B4
:10186000E2080091990510919A0520919B0530910D
:101870009C056C197D098E099F0906171707280713
:10188000390708F448C08091BC0083FDD8CF85ECAF
:101890008093BC000E94E2086B017C018091970557
:1018A000813009F440C0809194058C1710F4C091E8
:1018B0009405E3E7F5E0A1E5B5E080E08C1355C0C1
:1018C0008C2FDF91CF911F910F91FF90EF90DF90C0
:1018D000CF9008958091990590919A05A0919B05CC
:1018E000B0919C05892B8A2B8B2B09F484CF0E9405
:1018F000E2080091990510919A0520919B0530917D
:101900009C056C197D098E099F0906171707280782
:10191000390708F070CF809198050E94E20AC0E074
:10192000CFCF85EEB5CF8091990590919A05A09182
:101930009B05B0919C05892B8A2B8B2B09F4AECF8C
:101940000E94E2080091990510919A0520919B054B
:1019500030919C056C197D098E099F0906171707A0
:101960002807390708F09ACFD6CF91919D938F5FC2
:10197000A5CF0895E091AB048091AA04E81730F454
:10198000F0E0EF5AFA4F808190E008958FEF9FEFDB
:1019900008959091AB048091AA042FEF3FEF981720
:1019A00048F4E92FF0E0EF5AFA4F208130E09F5FD2
:1019B0009093AB04C9010895CF92DF92EF92FF920A
:1019C0000F931F93CF93DF937C01CB018A0120916A
:1019D0009D05222389F0EB016B01C40ED51ECC15A9
:1019E000DD0569F06991D701ED91FC910190F081DD
:1019F000E02DC7011995F3CF642F0E949D0AC801FD
:101A0000DF91CF911F910F91FF90EF90DF90CF90DA
:101A10000895CF93DF931F92CDB7DEB769832091EE
:101A20009D052223F9F02091C005203258F021E0D5
:101A300030E0FC013383228390E080E00F90DF915F
:101A4000CF91089580919E05E82FF0E0E156FA4F7E
:101A5000998190838F5F80939E058093C00581E07C
:101A600090E0ECCF61E0CE0101960E949D0AF7CF95
:101A7000CF93DF93EA0191E090939D058093BF059A
:101A800010929E051092C0058EE596E00E94090D09
:101A900069818EE596E00E94090D68818EE596E0E9
:101AA0000E94090D0E94030B91E0811190E0892FA3
:101AB000DF91CF910895FF920F931F93CF93DF9300
:101AC000042FF22E132F91E090939D058093BF0574
:101AD00010929E051092C0058EE596E00E94090DB9
:101AE000CF2DD12F0C0F1D2F111DC017D10731F095
:101AF00069918EE596E00E94090DF7CF0E94030BD5
:101B000091E0811190E0892FDF91CF911F910F918A
:101B1000FF900895CF93DF931F92CDB7DEB749832F
:101B20009E012F5F3F4F41E00E945B0D0F90DF91C0
:101B3000CF91089590E080E00895CF92DF92EF92E8
:101B4000FF920F931F93CF93DF936B01FA01E48011
:101B5000F580FE24EF24FE2400851185102701273F
:101B60001027C485D585DC27CD27DC2760817181CE
:101B7000762767277627072E000C880B990B0E9483
:101B8000862320E030E040E858E30E949E24F601DE
:101B90006083718382839383B701FF0C880B990B59
:101BA0000E94862320E030E040E858E30E949E2413
:101BB000F6016483758386839783B801110F880BC0
:101BC000990B0E94862320E030E040E858E30E9411
:101BD0009E24F6016087718782879387BE01DD0F9F
:101BE000880B990B0E94862320E030E040E858E300
:101BF0000E949E24F601648775878687978780E018
:101C0000DF91CF911F910F91FF90EF90DF90CF90D8
:101C100008954F925F926F927F928F929F92AF92B0
:101C2000BF92CF92DF92EF92FF920F931F93CF93C9
:101C3000DF9300D000D0CDB7DEB78C017E836D83FB
:101C4000FB01C080D180E280F380A7019601C7012B
:101C5000B6010E94DE2169837A838B839C83ED81A8
:101C6000FE8184809580A680B780A5019401C5017E
:101C7000B4010E94DE212B013C0129813A814B8174
:101C80005C81C701B6010E949E246B017C01A30107
:101C90009201C501B4010E949E249B01AC01C701C1
:101CA000B6010E94DE2120E030E040E85FE30E94C0
:101CB000DD216B017C01ED81FE812085318542852E
:101CC0005385C301B2010E949E242B013C01ED818A
:101CD000FE81248535854685578569817A818B818A
:101CE0009C810E949E249B01AC01C301B2010E9411
:101CF000DD21A70196010E947822F801608371839B
:101D000082839383ED81FE816481758186819781D1
:101D10009B01AC010E94DE21ED81FE812485358589
:101D2000468557850E949E246B017C01ED81FE81D2
:101D300060817181828193819B01AC010E94DE21CF
:101D4000ED81FE8120853185428553850E949E2448
:101D50009B01AC01C701B6010E94DE210E944A220C
:101D60009058F8016483758386839783ED81FE81A3
:101D70004080518062807380A3019201C301B2014F
:101D80000E94DE214B015C01ED81FE81C484D5847B
:101D9000E684F784A7019601C701B6010E94DE21FF
:101DA000A70196010E949E2469837A838B839C837A
:101DB000A5019401C301B2010E949E249B01AC01C4
:101DC00069817A818B819C810E94DE2120E030E054
:101DD00040E85FE30E94DD212B013C01ED81FE81A3
:101DE00060857185828593859B01AC010E94DE210F
:101DF000A70196010E949E246B017C01ED81FE816A
:101E00002481358146815781C501B4010E949E24F9
:101E10009B01AC01C701B6010E94DD21A301920123
:101E20000E947822F801608771878287938780E01B
:101E300026960FB6F894DEBF0FBECDBFDF91CF91CF
:101E40001F910F91FF90EF90DF90CF90BF90AF90D8
:101E50009F908F907F906F905F904F900895FC01BE
:101E600001900020E9F73197AF01481B590BBC01E5
:101E700081EC95E00C9447098F929F92AF92BF92AC
:101E80000F931F93CF93DF93CDB7DEB7A1970FB614
:101E9000F894DEBF0FBECDBF19A2423008F44AE06D
:101EA0008E010F5D1F4F842E912CB12CA12CA5010A
:101EB00094010E94B321E62FB901CA01EA30F4F47B
:101EC000E05DD801EE938D01232B242B252B79F790
:101ED00090E080E0109719F0CD010E942F0FA1969D
:101EE0000FB6F894DEBF0FBECDBFDF91CF911F912B
:101EF0000F91BF90AF909F908F900895E95CE1CFD4
:101F0000009711F00C942F0F90E080E00895CF938C
:101F1000DF930E942F0FEC018AE292E00E942F0FC4
:101F20008C0F9D1FDF91CF9108954F925F926F921A
:101F30007F928F929F92AF92BF92CF92DF92EF9259
:101F4000FF920F931F93CF936B017C01742EAC0112
:101F50009B010E945525882399F08DE292E0CF9154
:101F60001F910F91FF90EF90DF90CF90BF90AF90B7
:101F70009F908F907F906F905F904F900C942F0F59
:101F800046015701E894B7F82FEF3FEF4FE75FE7BF
:101F9000C501B4010E94552581110DC02FEF3FEFFF
:101FA0004FE75FE7C501B4010E94D72218161CF461
:101FB00081E392E0D4CF2FEF3FEF4FE75FE4C7011B
:101FC000B6010E94912418161CF485E392E0C7CF55
:101FD0002FEF3FEF4FE75FECC701B6010E94D7221A
:101FE00087FDF3CF20E030E0A901C701B6010E94D0
:101FF000D72210E000E087FF0AC06DE281EC95E097
:102000000E94DD098C01F7FAF094F7F8F094C0E033
:1020100060E070E080E09FE37C1641F020E030E07B
:1020200040E251E40E94DC22CF5FF6CFA701960187
:102030000E94DE212B013C010E9455234B015C01D3
:102040004AE00E943C0F7C01E00EF11ECC23C1F15E
:10205000C501B4010E9484239B01AC01C301B201FC
:102060000E94DD214B015C016EE281EC95E00E9453
:10207000DD09E80EF91EC15018F120E030E040E221
:1020800051E4C501B4010E949E242B013C010E9431
:1020900055234B01B12CA12C4AE0C501B4010E948B
:1020A0003C0FE80EF91EC501B4010E9484239B0178
:1020B000AC01C301B2010E94DD214B015C01DBCF09
:1020C000C701CF911F910F91FF90EF90DF90CF90BC
:1020D000BF90AF909F908F907F906F905F904F9048
:1020E00008952F923F924F925F926F927F928F92BC
:1020F0009F92AF92BF92CF92DF92EF92FF920F9397
:102100001F93CF93DF9300D000D000D0CDB7DEB7C0
:10211000582E6D834B833F832E830E9439096B01B8
:102120007C012B81622E712CC301880F991F9A8329
:102130008983220F2B8399819C83212C412C480178
:10214000B12CA12CE981FA812E161F060CF068C073
:10215000F1E0F0939D055092BF0510929E051092FC
:10216000C0056D818EE596E00E94090D0E94030B6B
:1021700021E020939D0510929E051092C0056B8171
:10218000852D0E94EA0B1092AB048093AA0433249D
:1021900033949091AA048091AB04981789F1842D0F
:1021A000042C000C990B998788878615970544F5B0
:1021B00001151105D1F4E885F985EE0FFF1F2E8179
:1021C0003F81E20FF31FF987E88731101EC08EE5CB
:1021D00096E00E94C90CE885F98520813181822B27
:1021E000932B91838083439418C00E9439096C1902
:1021F0007D098E099F09681579058A059B05D8F226
:102200000E94030B3C81230E9DCF8EE596E00E9439
:10221000C90CE885F98510828183F1E03F26B9CFAA
:1022200001151105B1F00E9439096C197D098E095B
:102230009F0930E020E0601771078207930748F09C
:10224000842D042C000C990B8615970514F4442456
:102250004A94842D29960FB6F894DEBF0FBECDBFE9
:10226000DF91CF911F910F91FF90EF90DF90CF9072
:10227000BF90AF909F908F907F906F905F904F90A6
:102280003F902F9008952F923F924F925F926F92BE
:102290007F928F929F92AF92BF92CF92DF92EF92F6
:1022A000FF920F931F93CF93DF9300D01F92CDB770
:1022B000DEB7782E662E4C833A8329830E94390933
:1022C0006B017C01512C1B822C81222E312C480168
:1022D000B12CA12C8C81581608F051C091E090933C
:1022E0009D057092BF0510929E051092C005662D47
:1022F0008EE596E00E94090D0E94030B21E02093D9
:102300009D0510929E051092C005B10165197109D5
:102310006132710514F060E270E0613208F060E251
:10232000872D0E94EA0B482E1092AB048093AA04DA
:102330008091AB044816E9F00115110579F48EE59A
:1023400096E00E94C90CE981FA819B81E90FF11D99
:1023500097FDFA9580839F5F9B83EACF0E9439099E
:102360006C197D098E099F09681579058A059B05F9
:1023700030F38C81813208F080E2580EABCF01152A
:102380001105C1F00E9439096C197D098E099F0958
:1023900030E020E0601771078207930758F02B8127
:1023A000822F220F990B2C812817190619F014F08F
:1023B0008FEF8B838B810F900F900F900F90DF9199
:1023C000CF911F910F91FF90EF90DF90CF90BF9032
:1023D000AF909F908F907F906F905F904F903F90C5
:1023E0002F900895CF92DF92EF92FF920F931F9359
:1023F000CF93DF931F92CDB7DEB7F82EE62EC42E13
:10240000D22E08EE13E09E012F5F3F4F41E00E9465
:10241000431181E090E001C0880FCA94EAF7498136
:10242000DD2081F0482B49836E2D8F2D0E948A0D6F
:102430000F90DF91CF911F910F91FF90EF90DF9060
:10244000CF90089580954823EECFEF92FF920F939F
:102450001F93CF93DF931F92CDB7DEB77C0108EEB9
:1024600013E09E012F5F3F4F41E065E7FC01808153
:102470000E944311882339F089818E7790E09595E9
:102480008795F7018183F70181810F90DF91CF91CB
:102490001F910F91FF90EF9008952F923F924F92CE
:1024A0005F926F927F928F929F92AF92BF92CF92E4
:1024B000DF92EF92FF920F931F93CF93DF93CDB7ED
:1024C000DEB7E5970FB6F894DEBF0FBECDBF998F8C
:1024D000888F69A32AA73BA74CA75DA7EEA6FFA6F6
:1024E00008AB19AB6B3309F008C20E942512883380
:1024F00008F408C227E72F8B33E03C8F6EE381ECB2
:1025000095E00E94DD09FE013D96FE8BED8B9E015C
:102510002F5F3F4F3B8F2A8F7F01DF8808EE13E04C
:102520009E012D5E3F4F41E06D2DA88DB98D8C91A0
:102530000E947110AB88BC88B5010B2C000C880B75
:10254000990B0E948623BF89B33109F4E0C1E1E011
:10255000AE22BB24D701AD92BC9220E030E040E037
:1025600051E40E949E24EA8DFB8D608371838283F7
:102570009383BC8DDB0EE2E0EE0EF11C2A8D3B8DC9
:102580002C5F3F4F3B8F2A8F8D899E8928173907F3
:1025900029F699A19B3309F0C8C18DEC9CECACE401
:1025A000BDE38AAB9BABACABBDABAFE0B0E0B9A7D2
:1025B000A8A71EA21DA2312C212CFE013196FE8F50
:1025C000ED8F9E01235F3F4F3BA32AA33F893CA38E
:1025D00089A18FA3812C912C540118A21F8E08EE83
:1025E00013E09E012D5E3F4F41E06FA1A88DB98D94
:1025F0008C910E9471106B897C89072E000C880BCE
:10260000990B0E9486236B017C01B9A1BB3361F455
:10261000EF8DF8A1329741F420E030E040E856E435
:102620000E94DD216B017C012601370177FA70944D
:1026300077F87094C501B4010E9484234B015C01BA
:1026400020E030E0A901C701B6010E9491241816CC
:1026500014F073016201A7019601C501B4010E9443
:10266000DE210E9455234B015C012FE632E143E855
:102670005AE3C301B2010E949E242EA53FA548A99A
:1026800059A90E949E24AD8DBE8D2D913D914D91F5
:102690005C910E94DE216B017C01ED8DFE8DC0827C
:1026A000D182E282F3822AA53BA54CA55DA5C30198
:1026B000B2010E949E24A70196010E94DE21FF899B
:1026C000F33109F43CC120E030E040E05EE30E94D9
:1026D0009E246B017C0120E030E0A9010E9491243E
:1026E00020E030E040E05FE387FD24C1C701B60190
:1026F0000E94DE210E944E236E7FAAA1BBA18D9174
:102700009C91682B792B7C8B6B8BAE014D5E5F4F60
:102710006CA1E88DF98D80810E94380D2F8D38A134
:102720002F5F3F4F38A32F8F3FA13E5F3FA38CA168
:102730009C8D890F8CA3AAA1BBA11296BBA3AAA3AF
:10274000ED8DFE8D3496FE8FED8F2F8D38A12330C9
:10275000310509F044CF33E62316310471F489EED4
:10276000881683E09806A104B10438F06AE281EC8F
:1027700095E00E94DD09312C212CC501B4010E9495
:1027800084232AA93BA94CA95DA90E949E2420E08C
:1027900030E040EA50E40E94D72287FF05C0ADA197
:1027A000BEA11196BEA3ADA3B4E68B169104A104FD
:1027B000B10408F0E3C0EBE02E1631040CF4DEC0E7
:1027C0002DA13EA12A3031050CF4D8C06EE281EC77
:1027D00095E00E94DD0920E030E040E45FE36AA577
:1027E0007BA58CA59DA50E949E246AA77BA78CA78C
:1027F0009DA720E030E040E45FE36EA57FA588A9B7
:1028000099A90E949E246EA77FA788AB99ABCE01A1
:102810000D966C01FF88DE0111963D01D3016D918B
:102820007D918D919D913D01BF89B33109F4BAC06D
:1028300020E030E040E05EE30E949E244B015C011A
:1028400020E030E0A9010E94912420E030E040E047
:102850005FE387FDA2C0C501B4010E94DE210E9492
:102860004E236E7FF60180819181682B792B7C8BC2
:102870006B8BAE014D5E5F4F6F2DA88DB98D8C9126
:102880000E94380DBC8DFB0EE2E0CE0ED11C2A8DCD
:102890003B8D2615370511F688A599A5019799A7AF
:1028A00088A7892B09F085CE21E042E06AE6A88D51
:1028B000B98D8C910E94F21121E043E06AE6E88D27
:1028C000F98D80810E94F211E5960FB6F894DEBF73
:1028D0000FBECDBFDF91CF911F910F91FF90EF9071
:1028E000DF90CF90BF90AF909F908F907F906F9030
:1028F0005F904F903F902F90089583E18F8B92E0EF
:102900009C8FFCCDA6E0AF8BB2E0BC8FF7CD20E072
:1029100030E040E850E40E949E24AA8DBB8D6D9368
:102920007D938D939C93139724CE80E090E0A0E854
:10293000BFE337CEC701B6010E94DD21DBCE20E028
:1029400030E040E85EE30E949E246B017C0120E0C1
:1029500030E0A9010E94912420E030E040E05FE3F4
:1029600087FD07C0C701B6010E94DE210E944E23E9
:10297000CACEC701B6010E94DD21F8CF61E070E048
:1029800080E090E00E940709BFEF2B1A3B0AE4E6C3
:102990002E16310409F011CE19CFC501B4010E94E1
:1029A000DD215DCF20E030E040E85EE30E949E2420
:1029B0004B015C0120E030E0A9010E94912420E05D
:1029C00030E040E05FE387FD07C0C501B4010E942D
:1029D000DE210E944E234BCFC501B4010E94DD21B0
:1029E000F8CFEF92FF920F931F93E12CF12C07E0A9
:1029F00013E427E636E646EE5EE363E40E944D12FA
:102A00001F910F91FF90EF900895EF92FF920F9317
:102A10001F93E12CF12C00EF11E427E636E646EE99
:102A20005EE36BE30E944D121F910F91FF90EF90B8
:102A300008950F931F93CF93DF93EC019C012F5FB9
:102A40003F4F08EE13E042E062E788810E944311A5
:102A500089819A81982789279827DF91CF911F91A3
:102A60000F9108952F923F924F925F926F927F92B3
:102A70008F929F92AF92BF92CF92DF92EF92FF928E
:102A80000F931F93CF93DF93CDB7DEB7A1970FB608
:102A9000F894DEBF0FBECDBF6C013B0149A30E947D
:102AA000E2081B012C0129A1A22EB12CC6010E9413
:102AB00019154C01A816B9060CF05BC0893C9105AC
:102AC0009CF121E042E06AE6F60180810E94F21169
:102AD000C6010E9419154C01892B09F04EC00E94B5
:102AE000E2086219730984099509693F7A428105F0
:102AF000910570F380E0A1960FB6F894DEBF0FBE8B
:102B0000CDBFDF91CF911F910F91FF90EF90DF909C
:102B1000CF90BF90AF909F908F907F906F905F907D
:102B20004F903F902F900895C6010E9419154C01B7
:102B3000A816B906F4F47C01EA18FB08470121E263
:102B4000E216F1041CF080E2882E912C882079F0A6
:102B500008EE13E09E012F5F3F4F482D64E7F6011A
:102B600080810E944311E818F90841F7DDCF1982EE
:102B7000FACF8114910409F4BDCF0E94E2086219D2
:102B8000730984099509693F7A428105910508F026
:102B9000B1CFA814B90409F089CF29A1222359F093
:102BA00008EE13E0930149A164E7F60180810E94D9
:102BB000431181E0A0CFF3011082FBCFBF92CF92EF
:102BC000DF92EF92FF920F931F93CF93DF931F92A9
:102BD000CDB7DEB7F82EE62EC42EB22ED02E08EEDC
:102BE00013E09E012F5F3F4F41E00E944311882375
:102BF00071F18C2D8B19990BAC014F5F5F4F81E008
:102C000090E002C0880F991FBA94E2F70197042E52
:102C100001C0880F0A94EAF70D2D01C0000F4A95F4
:102C2000EAF7482F4095998149238023482B49830F
:102C30006E2D8F2D0E948A0D0F90DF91CF911F91E5
:102C40000F91FF90EF90DF90CF90BF90089580E0BC
:102C5000F3CF0F93CF93DF93EC0101E023E042E049
:102C60006BE688810E94DE1500E022E044E06BE123
:102C700088810E94DE1522E044E06CE188810E9498
:102C8000DE1520E046E06BE68881DF91CF910F9161
:102C90000C94F211CF92DF92FF920F931F93CF9378
:102CA000DF93CDB7DEB72E970FB6F894DEBF0FBE19
:102CB000CDBF6C010E94251297E7F92E883310F4DE
:102CC00086E0F82E8EEE9EE00E942A0A86E008EE4C
:102CD00013E09E01275F3F4F43E066E0F816B1F036
:102CE00041E06F2DF60180810E94711063E06F0D4D
:102CF0009E01255F3F4F41E0F60180810E947110E7
:102D000066E06F0D9E01235F3F4F41E0F601808139
:102D10000E9471108DEE9EE00E942A0A8BEE9EE0CA
:102D20000E942A0A69857A85072E000C880B990B68
:102D30000E9486238E010F5F1F4F20E045E00E9416
:102D4000441F0E94800F87EE9EE00E942A0A86EEB2
:102D50009EE00E942A0A84EE9EE00E942A0A6B8569
:102D60007C85072E000C880B990B0E94862320E09F
:102D700045E00E94441F0E94800F80EE9EE00E946A
:102D80002A0A8FED9EE00E942A0A8DED9EE00E94A5
:102D90002A0A6D857E85072E000C880B990B0E94F0
:102DA000862320E045E00E94441F0E94800F89EDA9
:102DB0009EE00E942A0A08EE13E09E01275F3F4F23
:102DC00043E063E1F60180810E94711088ED9EE08E
:102DD0000E942A0A86ED9EE00E942A0A69857A8569
:102DE000072E000C880B990B0E9486238E010F5F23
:102DF0001F4F20E045E00E94441F0E94800F82ED9B
:102E00009EE00E942A0A81ED9EE00E942A0A8FEC31
:102E10009EE00E942A0A6B857C85072E000C880B99
:102E2000990B0E94862320E045E00E94441F0E94E7
:102E3000800F8BEC9EE00E942A0A8AEC9EE00E94A2
:102E40002A0A88EC9EE00E942A0A6D857E85072E5C
:102E5000000C880B990B0E94862320E045E00E941D
:102E6000441F0E94800F86EC9EE00E942A0A2E9644
:102E70000FB6F894DEBF0FBECDBFDF91CF911F918B
:102E80000F91FF90DF90CF90089585ED8093BC0067
:102E90008091990590919A05A0919B05B0919C0510
:102EA0000796A11DB11D23E0B695A7959795879527
:102EB0002A95D1F72091BC0024FD03C010929705FC
:102EC00008954091990550919A0560919B057091E4
:102ED0009C05452B462B472B69F30097A105B105AF
:102EE00041F025E32A95F1F700000197A109B10906
:102EF000E1CF809198050C94E20A2F923F924F9275
:102F00005F926F927F928F929F92AF92BF92CF9279
:102F1000DF92EF92FF920F931F93CF93DF9300D036
:102F20001F92CDB7DEB77C0111E01B8321E047E0A3
:102F30006BE6FC0180810E94F21164E670E080E0A3
:102F400090E00E94070987E08B8307E023E042E0DE
:102F50006AE6F70180810E94DE1564E670E080E099
:102F600090E00E9407091B839E012D5F3F4F41E0C7
:102F70006BE6F70180810E945B0D1B829E012D5F35
:102F80003F4F41E068E3F70180810E945B0D1B82A7
:102F90009E012D5F3F4F41E063E2F70180810E9477
:102FA0005B0D1B829E012D5F3F4F41E06CE1F701FD
:102FB00080810E945B0D80E88B839E012D5F3F4FD7
:102FC00041E067E3F70180810E945B0D1B839E0156
:102FD0002D5F3F4F41E06BE6F70180810E945B0D62
:102FE00084E08B839E012D5F3F4F41E069E1F70153
:102FF00080810E945B0D1B839E012D5F3F4F41E04E
:103000006AE1F70180810E945B0D40E06DE6F70107
:1030100080810E948A0D40E06EE6F70180810E9467
:103020008A0D80E190E00E946F255C0180E190E0D4
:103030000E946F251C011C82412CD12CC12C612CBB
:1030400077247394C6014096873F9B40D8F096EF53
:10305000592E5C18C301841991095816190619F0E4
:1030600014F0542C5194D10190E080E0960120534B
:103070003D4F851550F4F901E80FF91FE491ED93E8
:103080000196F7CF80E1582EE5CF9101452D6FE6EF
:10309000F70180810E945B0D852C912CA114B10455
:1030A000D9F14C814F716DE6F70180810E948A0D44
:1030B000442D6EE6F70180810E948A0D08EE13E030
:1030C0009501452D6FE6F70180810E944311A4010F
:1030D000B501C1010E949426892BF1F0C5010E941F
:1030E0000B26C1010E940B2681E00F900F900F90DC
:1030F0000F90DF91CF911F910F91FF90EF90DF9094
:10310000CF90BF90AF909F908F907F906F905F9087
:103110004F903F902F900895C80CD91CF6EFCF1612
:10312000FBE0DF0698F4450C19F42C812F5F2C830B
:103130004C814F716DE6F70180810E948A0D442D0C
:103140006EE6F70180810E948A0D7CCFC5010E9446
:103150000B26C1010E940B2680E094E09A838983AC
:10316000AE014F5F5F4F60E7F70180810E94380D2D
:1031700088E18B839E012D5F3F4F41E06BE1F701BA
:1031800080810E945B0D80EC8B839E012D5F3F4F01
:1031900041E06AE6F70180810E945B0D82E08B834B
:1031A0009E012D5F3F4F41E068E3F70180810E945F
:1031B0005B0D21E042E06AE6F70180810E94F21196
:1031C00020E047E06AE6F70180810E94F2118CE17D
:1031D00090E0F701928B818B80E087CF1F920F9256
:1031E0000FB60F9211242F933F938F939F93AF931A
:1031F000BF938091490590914A05A0914B05B091EC
:103200004C053091480523E0230F2D3758F50196E2
:10321000A11DB11D209348058093490590934A054F
:10322000A0934B05B0934C0580914D0590914E05B0
:10323000A0914F05B09150050196A11DB11D80933D
:103240004D0590934E05A0934F05B0935005BF9147
:10325000AF919F918F913F912F910F900FBE0F9043
:103260001F90189526E8230F0296A11DB11DD2CFFD
:103270001F920F920FB60F9211240BB60F922F933D
:103280003F934F935F936F937F938F939F93AF93EE
:10329000BF93EF93FF9381EC95E00E94BB09FF91F0
:1032A000EF91BF91AF919F918F917F916F915F91BE
:1032B0004F913F912F910F900BBE0F900FBE0F902B
:1032C0001F9018951F920F920FB60F9211240BB6F4
:1032D0000F922F938F939F93EF93FF93E091D105DC
:1032E000F091D2058081E091D705F091D80582FD5B
:1032F0001DC090818091DA058F5F8F732091DB056F
:10330000821741F0E091DA05F0E0EF53FA4F958F24
:103310008093DA05FF91EF919F918F912F910F90FC
:103320000BBE0F900FBE0F901F9018958081F2CFAB
:103330001F920F920FB60F9211240BB60F922F937C
:103340003F934F935F936F937F938F939F93AF932D
:10335000BF93EF93FF938091B900887F803609F483
:103360004DC008F040C0883209F4A9C028F580316A
:1033700009F49DC0C8F4882309F4FBC0883009F41F
:1033800096C0FF91EF91BF91AF919F918F917F91E7
:103390006F915F914F913F912F910F900BBE0F90C6
:1033A0000FBE0F901F901895883109F488C08032A5
:1033B00041F78093950514C0803409F49DC040F412
:1033C0008033B9F38833E9F68093950585ECB0C076
:1033D000803509F485C0883509F496C0883489F6AB
:1033E0000E944517CECF883909F48CC038F588374C
:1033F00029F050F4883611F0803719F683E0809375
:1034000097051092A50457C0883809F47BC080390D
:1034100019F0803809F0B5CF8091A504803208F00A
:1034200071C0E091A50481E08E0F8093A504809186
:10343000BB00F0E0EB57FB4F80833DC0803B39F091
:10344000E0F4803A09F479C0883A09F09ACF84E030
:10345000809397051092840410928304E091A8044D
:10346000F091A90419958091830481110FC081E026
:10347000809383041092630409C0803C09F4A6CFB2
:10348000883C09F4A3CF883B09F07BCFE09184040A
:1034900081E08E0F80938404F0E0ED59FB4F808132
:1034A0008093BB00909184048091830429C0809113
:1034B00072058093BB0085EC8093BC0062CF909135
:1034C000940580919305981758F5E091940581E053
:1034D0008E0F80939405F0E0ED58FA4F8081E9CF8C
:1034E000E091940581E08E0F809394058091BB005C
:1034F000F0E0ED58FA4F8083909194058091930508
:103500009817C8F285E8D8CFE091940581E08E0F36
:10351000809394058091BB00F0E0ED58FA4F8083D2
:103520008091960581115CCF81E08093710584EADA
:103530008093BC001092970524CF85EC8093BC004B
:10354000109297058091A504803230F4E091A50493
:10355000F0E0EB57FB4F10826091A50470E0E09122
:10356000A604F091A70485E894E019951092A504AB
:1035700008CF1092950534CFE1ECF5E0138212826A
:1035800088EE93E0A0E0B0E084839583A683B783C0
:103590002AE032E03183208325EC30E03587248730
:1035A00024EC30E03787268720EC30E0318B208B0D
:1035B00021EC30E0338B228B22EC30E0358B248BF6
:1035C00026EC30E0378B268B118E128E138E148EE4
:1035D000EEE5F6E01382128284839583A683B78397
:1035E0008CE192E09183808388E68093B50689E63A
:1035F0008093A206E2E9F6E080E090E0A0E8BFE375
:1036000080839183A283B3831482158216821782EA
:1036100010861186128613861486158616861786DE
:10362000E2E8F6E080839183A283B383148215825B
:1036300016821782108611861286138614861586C6
:1036400016861786E6E7F6E0108211821282138250
:1036500014821582168217821086118612861386AE
:10366000EAE6F6E010821182128213821482158239
:103670001682178210861186128613860895CF93BC
:10368000DF93CDB7DEB7E4970FB6F894DEBF0FBE79
:10369000CDBF789484B5826084BD84B5816084BDDB
:1036A00085B5826085BD85B5816085BD80916E00E0
:1036B000816080936E001092810080918100826011
:1036C000809381008091810081608093810080914E
:1036D00080008160809380008091B100846080933D
:1036E000B1008091B00081608093B0008091910022
:1036F000826080939100809191008160809391001D
:10370000809190008160809390008091A100826000
:103710008093A1008091A10081608093A10080919D
:10372000A00081608093A00080912101826080933D
:1037300021018091210181608093210180912001EC
:1037400081608093200180917A00846080937A0068
:1037500080917A00826080937A0080917A00816003
:1037600080937A0080917A00806880937A0010922A
:10377000C1001092AB041092AA0410929E05109200
:10378000C0050E94C40A85E499E09093A90480933F
:10379000A80486E499E09093A7048093A6048CE0A3
:1037A0008093B800E091D105F091D20582E080834A
:1037B000E091CD05F091CE051082E091CF05F0911A
:1037C000D00580E180831092D905E091D505F09174
:1037D000D60586E08083E091D305F091D405808101
:1037E00080618083E091D305F091D4058081886069
:1037F0008083E091D305F091D40580818068808337
:10380000E091D305F091D40580818F7D808389E399
:1038100092E00E94870F85EB96E00E94291682EACB
:1038200096E00E94291685EB96E00E9425128433CB
:1038300009F583E692E00E94870F82EA96E00E94F3
:1038400025128433D1F489EB92E00E94870F81E145
:1038500093E00E94870F81EC95E00E94A509892BD7
:1038600079F081EC95E00E948309892B49F088E486
:1038700093E0EFCF8BE892E0DECF82EE92E0E5CFEF
:1038800081EC95E00E94A509892B79F485E593E008
:103890000E94870FF5CF81EC95E00E948309892B68
:1038A00051F083E693E00E94870F81EC95E00E943F
:1038B000A509892B81F78EE39FE00E942A0A8AE2FC
:1038C00092E00E942F0F85EB96E00E947D17F82E64
:1038D0008093AD0482EA96E00E947D178093AC0449
:1038E000FF2019F083E993E01CC085EB96E00E946D
:1038F000051585EB96E00E94F1148AE292E00E94A1
:103900002F0F85EB96E00E944A1621E047E06AE619
:103910008091B5060E94F21181E0809347058FE601
:1039200093E00E94870F8091AC04811131C082EA3C
:1039300096E00E94051582EA96E00E94F1148AE260
:1039400092E00E942F0F82EA96E00E944A1621E040
:1039500047E06AE68091A2060E94F21181E080931E
:10396000460583EC93E00E94870F87E194E00E9474
:10397000870F80914705882321F0809146058111AA
:103980000AC08CE394E00E94800F0E94650AF1CF88
:1039900087EE93E0E8CF4091C60666E075E085EBE0
:1039A00096E00E9432154091B30666EC74E082EA1C
:1039B00096E00E94321546E055E062E976E085EB3C
:1039C00096E00E949D0D46EC54E062E876E082EAC3
:1039D00096E00E949D0D8091820690918306A091B1
:1039E0008406B09185068D8F9E8FAF8FB8A380918E
:1039F000860690918706A0918806B09189068DA3CE
:103A00009EA3AFA3B8A780918A0690918B06A09140
:103A10008C06B0918D0689A39AA3ABA3BCA3C090DA
:103A20008E06D0908F06E0909006F09091068090E0
:103A3000920690909306A0909406B090950680917F
:103A4000960690919706A0919806B091990689A73D
:103A50009AA7ABA7BCA780919A0690919B06A091CC
:103A60009C06B0919D068DA79EA7AFA7B8AB80918D
:103A70009E0690919F06A091A006B091A10689ABE9
:103A80009AABABABBCABA50194016D8D7E8D8F8DD8
:103A900098A10E949E242B013C0129A53AA54BA583
:103AA0005CA56DA17EA18FA198A50E949E249B017B
:103AB000AC01C301B2010E94DD212B013C012DA507
:103AC0003EA54FA558A969A17AA18BA19CA10E94EE
:103AD0009E249B01AC01C301B2010E94DD212B0198
:103AE0003C0129A93AA94BA95CA9C701B6010E94CA
:103AF0009E249B01AC01C301B2010E94DD216983B8
:103B00007A838B839C83A50194016DA17EA18FA1F3
:103B100098A50E949E242B013C0129A53AA54BA5FE
:103B20005CA56D8D7E8D8F8D98A10E949E249B013A
:103B3000AC01C301B2010E94DE212B013C012DA585
:103B40003EA54FA558A9C701B6010E949E249B011E
:103B5000AC01C301B2010E94DE212B013C0129A965
:103B60003AA94BA95CA969A17AA18BA19CA10E9449
:103B70009E249B01AC01C301B2010E94DD216D8333
:103B80007E838F839887A501940169A17AA18BA177
:103B90009CA10E949E242B013C0129A53AA54BA57E
:103BA0005CA5C701B6010E949E249B01AC01C30124
:103BB000B2010E94DD212B013C012DA53EA54FA5A0
:103BC00058A96D8D7E8D8F8D98A10E949E249B019A
:103BD000AC01C301B2010E94DE212B013C0129A9E5
:103BE0003AA94BA95CA96DA17EA18FA198A50E94BD
:103BF0009E249B01AC01C301B2010E94DE216987B2
:103C00007A878B879C87A5019401C701B6010E9422
:103C10009E246B017C0129A53AA54BA55CA569A151
:103C20007AA18BA19CA10E949E249B01AC01C7019B
:103C3000B6010E94DE216B017C012DA53EA54FA59A
:103C400058A96DA17EA18FA198A50E949E249B01D9
:103C5000AC01C701B6010E94DD216B017C0129A9DD
:103C60003AA94BA95CA96D8D7E8D8F8D98A10E947C
:103C70009E249B01AC01C701B6010E94DE216D8725
:103C80007E878F87988BBE016F5F7F4FCE014196F5
:103C90000E94090E62E976E08AEB94E00E94090E28
:103CA00062E876E08EEA94E00E94090E20E030E0BF
:103CB00044E353E46091BA047091BB048091BC0466
:103CC0009091BD040E949E242BED3FE049E450E416
:103CD0000E94DC2242E00E94950F80E694E00E9460
:103CE000800F20E030E044E353E46091BE04709123
:103CF000BF048091C0049091C1040E949E242BEDCA
:103D00003FE049E450E40E94DC2242E00E94950F2B
:103D100080E694E00E94800F20E030E044E353E42A
:103D20006091C2047091C3048091C4049091C50451
:103D30000E949E242BED3FE049E450E40E94DC22E7
:103D400042E00E94950F80E694E00E94800F20E000
:103D500030E044E353E46091AE047091AF0480918D
:103D6000B0049091B1040E949E242BED3FE049E401
:103D700050E40E94DC2242E00E94950F80E694E02D
:103D80000E94800F20E030E044E353E46091B204ED
:103D90007091B3048091B4049091B5040E949E2464
:103DA0002BED3FE049E450E40E94DC2242E00E9417
:103DB000950F80E694E00E94800F20E030E044E31D
:103DC00053E46091B6047091B7048091B804909167
:103DD000B9040E949E242BED3FE049E450E40E9488
:103DE000DC2242E00E94950F80E694E00E94800F62
:103DF00020E030E044E353E469897A898B899C8927
:103E00000E949E242BED3FE049E450E40E94DC2216
:103E100042E00E94950F80E694E00E94800F20E02F
:103E200030E044E353E46D897E898F89988D0E9448
:103E30009E242BED3FE049E450E40E94DC2242E066
:103E40000E94950F80E694E00E94800F20E030E011
:103E500044E353E4698D7A8D8B8D9C8D0E949E2462
:103E60002BED3FE049E450E40E94DC2242E00E9456
:103E7000950F8AE292E00E942F0F68EE73E080E0D7
:103E800090E00E94070981CDEF920F931F93CF938B
:103E9000DF93E80134E047FD34E1042E000C550BBC
:103EA00057FF03C0519541955109E32E022F242F4E
:103EB000AE010E94621FCE01DF91CF911F910F9141
:103EC000EF9008958F929F92AF92BF92CF92DF9220
:103ED000EF92FF920F931F93CF93DF9300D000D008
:103EE00000D0CDB7DEB76A01F22EB02E102FFBE363
:103EF000AF2EA01608F41BE31F5F012F27E0AE01D1
:103F00004F5F5F4F0E94DB20BC018981982F997021
:103F1000913009F44EC09BE2E1FC04C09E2D9170EB
:103F2000E0FC49C05E2D5071E82FE87083FF55C05A
:103F300084E0911101C083E0EF2DE81B8F1508F09C
:103F4000E0E0D6018E2F20E25523C9F1992329F014
:103F5000D6019C93C60101966C0196012D5F3F4FDF
:103F6000E2FE33C08EE4D6018C9391E411969C93CB
:103F7000119712968C93D9018E2F90E281112AC04D
:103F8000E20FF32FF11D10828EEF9FEF29960FB6EF
:103F9000F894DEBF0FBECDBFDF91CF911F910F917F
:103FA000FF90EF90DF90CF90BF90AF909F908F9059
:103FB00008959DE2B7CF90E2B5CF2D938150811146
:103FC000FCCFCE0ED11CE0E0C1CF8EE6D6018C93A3
:103FD00091E6CCCF9D938150D1CF482F447082FF82
:103FE0003DC084E0911101C083E08F1510F4EF2DE6
:103FF000E81BD6018E2F20E2552309F1992329F0E1
:10400000D6019C93C60101966C0196012D5F3F4F2E
:10401000E2FE1BC089E4D6018C938EE411968C934A
:10402000119786E412968C93D9018E2F90E2882303
:1040300009F4A6CF9D938150FACF2D938150811121
:10404000FCCFCE0ED11CE0E0D9CF89E6D6018C930F
:104050008EE611968C93119786E6E4CF9B0177FF4D
:1040600002C030E020E0A1E0B0E0911102C0B0E079
:10407000A0E0F9013196AE0FBF1F8B2C912CBB2015
:1040800009F461C05401EFEFAE1ABE0AAA0DBB1DC0
:10409000FA161B0619F014F04F2D4A1B511188C057
:1040A000E3FC59C07601A42FB0E2A1114FC0C40EA9
:1040B000D11C992309F45BC040E0D6011196F601AA
:1040C00090836D01552309F448C0012F060F9A8192
:1040D000582F507184FF03C0913309F4015010161A
:1040E0000CF047C0093008F008E0EEE2FE2E5B015C
:1040F000A01AB10885019194819491082F3F32074D
:1041000029F4D601FC92F60131966F01621773070C
:1041100094F1021713077CF5DB01A21BB30BAA2451
:10412000A394B12CAC0EBD1EAA0DBB1D11968C9193
:1041300021503109D601119628153905F4F0F60100
:1041400080836D01DBCFB12CA12CA0CFF701B193FF
:104150007F01A150AACF9111B0CFD601942F50E387
:1041600002C05D9391509111FCCFC40ED11C40E070
:10417000ACCF01E0BACF80E3DBCF6217730731F435
:10418000963388F4953311F4552369F0F601808352
:10419000FD01842F90E2811108C0A40FB11D1C9273
:1041A00090E080E0F3CE81E3F1CF91938150F3CFA3
:1041B000911183CF8ACF283008F027E03327DA0126
:1041C000990F311D87FD916000966105710539F4E5
:1041D00032602E5F3D9330E32A95E1F708959F3FCB
:1041E00030F080387105610509F03C5F3C5F3D931C
:1041F000913008F08068911DDF93CF931F930F9348
:10420000FF92EF92192F987F9695E92F96959695A4
:10421000E90FFF27E05DFD4F99273327EE24FF24A8
:10422000A701E70105900894079428F4360FE71ECC
:10423000F81E491F511D660F771F881F991F06948E
:10424000A1F70590079428F4E70EF81E491F561FA2
:10425000C11D770F881F991F661F0694A1F705904F
:10426000079428F4F80E491F561FC71FD11D880F49
:10427000991F661F771F0694A1F70590079420F4F5
:10428000490F561FC71FD81F990F661F771F881F1A
:104290000694A9F784911095177041F0D695C795AB
:1042A00057954795F794E7941A95C1F7E6EDF1E035
:1042B00068941590159135916591959105907FE2DF
:1042C0007395E118F10A430B560BC90BD009C0F7DF
:1042D000E10CF11E431F561FC91FD01D7EF4703321
:1042E00011F48A95E6CFE894015030F0080F0AF4F3
:1042F0000027021708F4202F2395022F7A3328F085
:1043000079E37D932A95E9F710C07D932A9589F684
:10431000069497956795379517951794E118F10AC4
:10432000430B560BC90BD00998F023957E917395DA
:104330007A3308F070E37C932013B8F77E917061B4
:104340007D9330F0839571E37D9370E32A95E1F7D7
:104350001124EF90FF900F911F91CF91DF9199273A
:1043600087FD90950895A1E21A2EAA1BBB1BFD01A3
:104370000DC0AA1FBB1FEE1FFF1FA217B307E40744
:10438000F50720F0A21BB30BE40BF50B661F771F9C
:10439000881F991F1A9469F760957095809590957C
:1043A0009B01AC01BD01CF010895EE0FFF1F881FD7
:1043B0008BBF0790F691E02D19945058BB27AA2780
:1043C0000E94F5210C9457240E94492438F00E9441
:1043D000502420F039F49F3F19F426F40C940B2458
:1043E0000EF4E095E7FB0C940524E92F0E94682465
:1043F00058F3BA17620773078407950720F079F41A
:10440000A6F50C948A240EF4E0950B2EBA2FA02D5D
:104410000B01B90190010C01CA01A0011124FF2771
:10442000591B99F0593F50F4503E68F11A16F0406C
:10443000A22F232F342F4427585FF3CF469537956B
:104440002795A795F0405395C9F77EF41F16BA0B30
:10445000620B730B840BBAF09150A1F0FF0FBB1FDE
:10446000661F771F881FC2F70EC0BA0F621F731F27
:10447000841F48F4879577956795B795F7959E3F84
:1044800008F0B0CF9395880F08F09927EE0F979515
:10449000879508959F939F77EEE389379E0728F4C9
:1044A000E4EEF0E00E9435240CC00E94C123905835
:1044B000A2EA2AED3FE049EC5FE30E94F5210E9469
:1044C00057240F9007FC905808950E94492460F0EB
:1044D00080E891E009F49EEF0E94502428F040E823
:1044E00051E071F45EEF0CC00C940B240C948A2400
:1044F000E92FE0780E94682440F3092E052AB1F3E1
:10450000261737074807590738F00E2E07F8E02519
:1045100069F0E025E0640AC0EF6307F8009407FA49
:10452000DB01B9019D01DC01CA01AD01EF930E94DD
:10453000F3220E9457240E94A8225F91552339F04C
:104540002BED3FE049E450FD49EC0C94DE21089549
:10455000DF93DD27B92FBF7740E85FE31616170614
:1045600048075B0718F4D92F0E9496249F938F93D6
:104570007F936F930E945125E8EFF0E00E940E2494
:104580000E9457242F913F914F915F910E94B12437
:10459000DD2351F09058A2EA2AED3FE049EC5FE3B9
:1045A000D0785D270E94F521DF910C9457240E945A
:1045B000E12308F481E008950E94F0220C9457242E
:1045C0000E94502458F00E94492440F029F45F3F93
:1045D00029F00C94052451110C948B240C940B2479
:1045E0000E94682468F39923B1F3552391F3951B36
:1045F000550BBB27AA2762177307840738F09F5F04
:104600005F4F220F331F441FAA1FA9F335D00E2E70
:104610003AF0E0E832D091505040E695001CCAF7DD
:104620002BD0FE2F29D0660F771F881FBB1F2617A0
:1046300037074807AB07B0E809F0BB0B802DBF0177
:10464000FF2793585F4F3AF09E3F510578F00C9446
:1046500005240C948B245F3FE4F3983ED4F38695B5
:1046600077956795B795F7959F5FC9F7880F911D67
:104670009695879597F90895E1E0660F771F881F53
:10468000BB1F621773078407BA0720F0621B730B06
:10469000840BBA0BEE1F88F7E09508950E9455230E
:1046A0006894B1110C948B2408950E94702488F0B2
:1046B0009F5798F0B92F9927B751B0F0E1F0660FE6
:1046C000771F881F991F1AF0BA95C9F714C0B13027
:1046D00091F00E948A24B1E008950C948A24672FF7
:1046E000782F8827B85F39F0B93FCCF38695779556
:1046F0006795B395D9F73EF490958095709561953F
:104700007F4F8F4F9F4F0895E89409C097FB3EF469
:1047100090958095709561957F4F8F4F9F4F99230E
:10472000A9F0F92F96E9BB279395F695879577958C
:104730006795B795F111F8CFFAF4BB0F11F460FF4C
:104740001BC06F5F7F4F8F4F9F4F16C0882311F0A4
:1047500096E911C0772321F09EE8872F762F05C0B8
:10476000662371F096E8862F70E060E02AF09A9553
:10477000660F771F881FDAF7880F9695879597F948
:104780000895DF93CF931F930F938B01EC01E5E224
:10479000F1E00E940E240E9457249801AE018B0183
:1047A000EC0160E070E080E89FE30E94DD210E9460
:1047B00011259801AE010F911F91CF91DF910C94BB
:1047C000B124990F0008550FAA0BE0E8FEEF16166A
:1047D0001706E807F907C0F012161306E407F507F5
:1047E00098F0621B730B840B950B39F40A2661F069
:1047F000232B242B252B21F408950A2609F4A1400C
:10480000A6958FEF811D811D089597F99F6780E818
:1048100070E060E008959FEF80EC0895DF93CF9300
:104820001F930F93FF92EF92DF927B018C016894AC
:1048300006C0DA2EEF010E94B124FE01E894A59192
:104840002591359145915591A6F3EF010E94F521EF
:10485000FE019701A801DA9469F7DF90EF90FF90CD
:104860000F911F91CF91DF9108959F938F937F9325
:104870006F93FF93EF939B01AC010E949E24EF91F5
:10488000FF910E940E242F913F914F915F910C94C4
:104890009E2400240A941616170618060906089581
:1048A00000240A9412161306140605060895092E0C
:1048B0000394000C11F4882352F0BB0F40F4BF2B7B
:1048C00011F460FF04C06F5F7F4F8F4F9F4F0895BB
:1048D00057FD9058440F551F59F05F3F71F04795B1
:1048E000880F97FB991F61F09F3F79F08795089596
:1048F000121613061406551FF2CF4695F1DF08C0B5
:10490000161617061806991FF1CF869571056105D1
:1049100008940895E894BB2766277727CB0197F979
:1049200008950E94E12308F48FEF08959B01AC01E4
:1049300060E070E080E89FE30C94DC220E94B124E8
:104940000C9457240E94492438F00E94502420F0EF
:10495000952311F00C9405240C940B2411240C9431
:104960008B240E94682470F3959FC1F3950F50E04B
:10497000551F629FF001729FBB27F00DB11D639F11
:10498000AA27F00DB11DAA1F649F6627B00DA11DB7
:10499000661F829F2227B00DA11D621F739FB00D5D
:1049A000A11D621F839FA00D611D221F749F3327CD
:1049B000A00D611D231F849F600D211D822F762F66
:1049C0006A2F11249F5750409AF0F1F088234AF043
:1049D000EE0FFF1FBB1F661F771F881F91505040AF
:1049E000A9F79E3F510580F00C9405240C948B246C
:1049F0005F3FE4F3983ED4F3869577956795B79536
:104A0000F795E7959F5FC1F7FE2B880F911D96954F
:104A1000879597F9089519F416F40C940B240C94C7
:104A20005A250E947024B8F39923C9F3B6F39F570F
:104A3000550B87FF0E9468250024A0E640EA9001FC
:104A400080585695979528F4805C660F771F881FCD
:104A500020F026173707480730F4621B730B840BCE
:104A6000202931294A2BA695179407942025312512
:104A70004A2758F7660F771F881F20F02617370739
:104A8000480730F4620B730B840B200D311D411D60
:104A9000A09581F7B901842F9158880F9695879535
:104AA00008959B01AC010C949E240E94E123880B85
:104AB000990B08959F3F31F0915020F48795779599
:104AC0006795B795880F911D9695879597F90895E5
:104AD00091505040660F771F881FD2F708950F93AB
:104AE0001F93CF93DF938230910510F482E090E022
:104AF000E091CA06F091CB0630E020E0B0E0A0E003
:104B0000309799F42115310509F44AC0281B390B57
:104B100024303105D8F58A819B816115710589F1B1
:104B2000FB0193838283FE0111C040815181028188
:104B3000138148175907E0F04817590799F410975F
:104B400061F012960C93129713961C933296CF0134
:104B5000DF91CF911F910F9108950093CA06109392
:104B6000CB06F4CF2115310551F04217530738F029
:104B7000A901DB019A01BD01DF01F801C1CFEF01FD
:104B8000F9CF9093CB068093CA06CDCFFE01E20FFA
:104B9000F31F819391932250310939832883D7CF12
:104BA0002091C8063091C906232B41F420910202BE
:104BB000309103023093C9062093C8062091000269
:104BC000309101022115310541F42DB73EB74091D6
:104BD000040250910502241B350BE091C806F091A8
:104BE000C906E217F307A0F42E1B3F0B281739075D
:104BF00078F0AC014E5F5F4F2417350748F04E0F39
:104C00005F1F5093C9064093C806819391939FCF2D
:104C1000F0E0E0E09CCFCF93DF930097E9F0FC0158
:104C2000329713821282A091CA06B091CB06ED0191
:104C300030E020E01097A1F420813181820F931F92
:104C40002091C8063091C9062817390709F061C0BC
:104C5000F093C906E093C806DF91CF910895EA0169
:104C6000CE17DF07E8F54A815B819E0141155105AA
:104C7000B1F7E901FB83EA8349915991C40FD51F2C
:104C8000EC17FD0761F4808191810296840F951FD6
:104C9000E90199838883828193819B838A83F0E0F1
:104CA000E0E012968D919C9113970097B9F52D91A4
:104CB0003C911197CD010296820F931F2091C80657
:104CC0003091C9062817390739F6309751F51092F7
:104CD000CB061092CA06B093C906A093C806BCCFF3
:104CE000D383C28340815181840F951FC817D90790
:104CF00061F44E5F5F4F88819981480F591F51833E
:104D000040838A819B81938382832115310509F039
:104D1000B0CFF093CB06E093CA069ECFFD01DC0135
:104D2000C0CF13821282D7CFFB01DC0104C08D916A
:104D30000190801921F441505040C8F7881B990B0D
:064D40000895F894FFCF76
:104D46000000CC06800000000000DD094709740958
:104D5600450AA5098309970900000000090DDC0C26
:104D66009A0DB90C960AC90CBA0C0D0A006E616E42
:104D760000696E66006F766600496E6974616C69DB
:104D860073696572656E206465722053656E736F14
:104D960072656E20756562657220493243202E2E3B
:104DA6002E2E0056657262696E64756E67207A757E
:104DB6006D2065727374656E2053656E736F722015
:104DC6006572666F677265696368005665726269C7
:104DD6006E64756E67207A756D2065727374656E84
:104DE6002053656E736F72204E4943485420657296
:104DF600666F6772656963680056657262696E649C
:104E0600756E67207A756D207A77656974656E2090
:104E160053656E736F72206572666F67726569633C
:104E2600680056657262696E64756E67207A756D84
:104E3600207A77656974656E2053656E736F72208C
:104E46004E49434854206572666F677265696368A8
:104E56000053656E6420616E7920636861726163D8
:104E660074657220746F20626567696E20444D50C8
:104E76002070726F6772616D6D696E6720616E6416
:104E86002064656D6F3A2000656D747079206275D7
:104E960066666572007761697420666F7220646168
:104EA600746100656D74707920616761696E004494
:104EB6004D502053656E736F72203120496E6974B0
:104EC60069616C697A696E672053756363656564A9
:104ED600656400496E697469616C697A696E6720F8
:104EE600444D502053656E736F72203120666169A0
:104EF6006C6564202D3E2070726573732052455395
:104F0600455400444D502053656E736F7220322015
:104F1600496E697469616C697A696E672053756355
:104F260063656564656400496E697469616C697A74
:104F3600696E6720444D502053656E736F72203240
:104F4600206661696C6564202D3E207072657373FE
:104F56002052455345540057696E6B656C20696E47
:104F66003A207A2D41636873652C20792D41636858
:104F760073652C20782D416368736500444D50207D
:104F8600537461747573206661696C6564202D3E87
:104F96002072657475726E20696D204C6F6F70009B
:024FA600090000
:00000001FF
